:020000040800F2
:10000000B8060020A9010008252A0008C127000819
:10001000212A000899080008412B00080000000070
:100020000000000000000000000000002D2A000871
:100030009D08000800000000292A0008312A000855
:10004000C3010008C3010008C3010008C301000880
:10005000C3010008C3010008C3010008C301000870
:10006000C3010008C3010008C3010008C301000860
:10007000C3010008C3010008C3010008C301000850
:10008000C3010008C3010008C3010008000000000C
:10009000000000000000000000000000C301000894
:1000A000C3010008C3010008C3010008C301000820
:1000B000C3010008C3010008C3010008C301000810
:1000C000C3010008C3010008C3010008C301000800
:1000D000C3010008C3010008C301000800000000BC
:1000E000C3010008C3010008C301000800000000AC
:1000F000000000000000000000000000C301000834
:1001000000000000C3010008C3010008C30100088B
:1001100000000000000000000000000000000000DF
:10012000C3010008C3010008C3010008C30100089F
:10013000C3010008000000000000000000000000F3
:10014000000000000000000000000000C3010008E3
:10015000C3010008C3010008C3010008C30100086F
:10016000C3010008C30100080000000000000000F7
:10017000000000000000000000000000000000007F
:1001800000000000C30100080000000000000000A3
:10019000C3010008DFF80CD000F01CFB004800474A
:1001A000692D0008B8060020064880470648004729
:1001B000FEE7FEE7FEE7FEE7FEE7FEE7FEE7FEE717
:1001C000FEE7FEE72D2B0008950100082DE9F05F02
:1001D0000546002092469B468846064681464024B6
:1001E0001BE0284641464746224600F00DFA53469A
:1001F0005A46C01A914110D311461846224600F0C3
:10020000F4F92D1A67EB01084F4622460120002120
:1002100000F0EBF917EB00094E41201EA4F1010498
:10022000DFDC484631462A464346BDE8F09F2DE9CB
:10023000FE4F804681EA0300C00F0C46009021F07B
:10024000004123F00045B8EB0200A94105D2404629
:10025000214690461C460B46024623F000401043C0
:1002600047D0270DC7F30A00C3F30A510290401A82
:10027000019040286BDAC3F3130040F4801B009810
:10028000924620B10023D2EB030A63EB0B0B0198DB
:100290005946C0F14002504600F0A7F906460D4607
:1002A00050465946019A00F0BFF910EB0800614131
:1002B000002487EA115284EAE7731A4340D0009A77
:1002C00062B3019A012A4FEA075215DC001B61EB69
:1002D00002014FF0004202EA0752CDE90042001C41
:1002E00041F5801132462B4600F0F6F903B0BDE827
:1002F000F08F40462146F9E7001B61EB0201001C2C
:1003000041F5801300185B412018A2F5001747EB58
:10031000030140EAD570B6196D4111E06D084FEA4E
:10032000360645EAC0754FEA0752001B61EB020131
:10033000001C41F5801149084FEA30000019514175
:1003400032462B4603B0BDE8F04F00F0B6B9009836
:10035000012240000023D0EB020263EBE07300981F
:1003600021464FEAE074B8EB000061EB0401E9E7D5
:1003700083F000435BE781F0004158E72DE9FE4F31
:1003800081EA030404F0004421F0004100944FF09E
:10039000000B23F0004350EA01045ED052EA03044C
:1003A0005BD0C3F30A54C1F30A552C44A4F2F334CE
:1003B0000194A0FB0254C1F3130141F48011C3F373
:1003C000130343F4801301FB024400FB034E840A31
:1003D000970A44EA815447EA8357A4FB07680295C9
:1003E0008D0A05FB07854FEA932C04FB0C54270567
:1003F000029D4FEA065847EA1637B5EB08056EEB43
:10040000070C870E920E47EA811742EA8312A7FB78
:100410000201B6EB0B0164EB00042B0D43EA0C3335
:100420005E1844EB1C50DA465146E7FB0201C5F367
:1004300013044FEA0B3343EA14534FEA0432019C8E
:1004400043EA0603A4F10C040294009CCDE900B435
:1004500000F042F903B0BDE8F08F00200146F9E753
:100460002DE9F04D81EA030404F0004B21F0004532
:1004700014464FF0000A23F0004150EA050220D054
:1004800054EA01021DD0C5F30A570246C5F313030F
:10049000C1F31300C1F30A5640F4801543F48013EE
:1004A000A7EB0608101BD64608F2FD3873EB0500D3
:1004B00002D308F1010801E092185B41B8F1000F86
:1004C00003DA00200146BDE8F08D00204FF48011D2
:1004D000064684460EE0171B73EB050705D3121B77
:1004E00063EB050306434CEA010C49084FEA300070
:1004F00092185B4150EA0107EDD152EA030012D095
:1005000082EA040083EA0501084305D0101BAB41D1
:1005100006D20122002306E000224FF0004302E051
:100520006FF0010253101AEB06004CEB085110EB70
:100530000A0041EB0B01BDE8F04D00F0BEB80EB56E
:10054000C10F80EAE0700844CA07002140F233433B
:100550008DE80E000A460B4600F0BEF803B000BD61
:1005600000F0004230F000400AD0C10D01F560718A
:10057000C0F3160042EA0151C20840071143704718
:1005800000200146704701F0004330B421F00041E3
:1005900050EA010206D00A0DA2F56072C1F3130100
:1005A000002A02DC30BC00207047440F44EAC1043A
:1005B000C100E01830BC00EBC25000F047B830B5C5
:1005C0000B46014600202022012409E021FA02F511
:1005D0009D4205D303FA02F5491B04FA02F52844AB
:1005E000151EA2F10102F1DC30BD202A04DB203A05
:1005F00000FA02F1002070479140C2F1200320FA76
:1006000003F3194390407047202A04DB203A21FA73
:1006100002F00021704721FA02F3D040C2F120021B
:100620009140084319467047202A06DBCB17203A31
:1006300041FA02F043EAE07306E041FA02F3D040E7
:10064000C2F1200291400843194670470029A8BF13
:100650007047401C490008BF20F00100704710B4EB
:10066000B0FA80FC00FA0CF050EA010404BF10BCA0
:10067000704749B1CCF1200421FA04F411FA0CF1CD
:1006800018BF012121430843A3EB0C01CB1D4FEA06
:1006900000614FEA102042BF002010BC704700EB01
:1006A000C35010440029A4BF10BC7047401C49002F
:1006B00008BF20F0010010BC704710B5141E73F184
:1006C000000408DA401C41F1000192185B411A4312
:1006D00001D120F0010010BD2DE9F04D92469B465E
:1006E00011B1B1FA81F202E0B0FA80F22032904604
:1006F000FFF77BFF04460F4640EA0A0041EA0B0180
:1007000053465A46084313D0114653EA010019D004
:10071000C8F140025046FFF777FF05460E465046A7
:1007200059464246FFF761FF084305D0012004E027
:1007300020463946BDE8F08D0020054346EAE076C4
:100740002C4337430A986305E40AA0EB0800002213
:10075000FD0A44EA47540A3002D500200146E9E781
:10076000010510196941DDE9084500196941BDE835
:10077000F04DA2E7C1F30A52C1F3130140F2FF3377
:1007800041F480119A4202DA00200146704740F29B
:1007900033439A42A2F2334202DC5242FFF734BFA3
:1007A000FFF723BF30B5041E71F1000404DB4FF0E6
:1007B0000044404264EB0101141E73F1000405DBA8
:1007C0001C464FF00043524263EB0403994208BFBA
:1007D000904230BD064C074D06E0E06840F0010352
:1007E00094E8070098471034AC42F6D3FFF7D6FCE4
:1007F0007C4100089C4100082DE9F04184B040F2A2
:100800008800C2F2000000F120040025012605271F
:1008100069462046039500950196029700F040F83E
:1008200020B1EFF3108072B6FEE700BF204600F063
:100830003DFA20464FF47A7100F0B8F9204600F0F6
:10084000CFF840F21808C2F20008C8F8500020465D
:1008500000F0B0FA69462046CDE90066CDE90275A0
:1008600000F01EF820B1EFF3108072B6FEE700BF73
:10087000204600F01BFA20464FF47A7100F096F9FA
:10088000204600F0ADF8C8F85400204600F092FA77
:1008900004B0BDE8F0810000FEE7000070470000F2
:1008A00070B581B00022009290F83C20012A03D15B
:1008B0000221084601B070BDD1F800E00122BEF16E
:1008C0000A0F80F83C200BD31FFA8EF25200066804
:1008D00012FA8EF2A2F11E0306F10C0205E000BF2F
:1008E00006680EEB4E0306F110024FF0070C156878
:1008F0000CFA03F4A54315608D68146805FA03F338
:10090000234313604968062906D801EB81010539A4
:1009100006F134020AE000BF0C2901EB810187BF18
:10092000413906F12C02233906F130021F231468E5
:100930008B4024EA030342F2043C1360C4F2010C2E
:100940001FFA8EF3146803FA01F1ACF541732143E9
:100950009E4211603ED1BEF1120F07D1DCF80010AB
:1009600041F48001CCF8001034E000BF2EF001010A
:1009700010292FD1DCF80010BEF1100F41F4000156
:10098000CCF8001026D140F21001C2F20001096833
:100990004DF68362C4F21B32A1FB0212910C01EBF3
:1009A0008101490000910099A1B10099013900919C
:1009B000009979B1009901390091009951B10099DC
:1009C00001390091009929B10099013900910099EC
:1009D0000029EAD1002180F83C10084601B070BD22
:1009E0000068C06C70470000002804BF01207047F9
:1009F00010B50446006C00283ED0206CC00645D4DB
:100A0000206C41F202118843023042F2043120642A
:100A1000C4F20101086820F4403008600A6894E8D4
:100A200009101A43D4F810E00A604168012321F448
:100A3000807141604168C0F6007341EA0E21416057
:100A4000416821F040714160416841EA0C01416018
:100A5000816821F400618160E168826811438160EE
:100A6000A16A8268994222F070628260826813D122
:100A700022F0405119E000BF204600F065F8002048
:100A8000606484F83C00206CC006B9D501200021C8
:100A900084F83C1010BD00BF11438160816821F0D3
:100AA00040518160E16A826811438160816821F070
:100AB000020181608168227E94F8203041EA42017F
:100AC0008160416883B141F40061416041684EF248
:100AD000000221F460414160616ACFF6FF72436811
:100AE00002EB4131194301E021F400614160C16A28
:100AF00040F2000C21F47001C162E2696169CFF635
:100B0000F07CC36A0CEB02521A43C262826822F480
:100B10000072826094F83020836843EA4222826047
:100B2000826822F480628260826842EA8121816068
:100B300000206064216C012262F301012164002124
:100B400084F83C1010BD000080B586B042F2000170
:100B50000068C4F20101002288420592049201D08B
:100B600006B080BD43F630000092C4F20200436933
:100B700043F480734361436903F480730093009BE3
:100B80000092036843F001030360006800F0010075
:100B900000900098072001900320CDE9020201F5A2
:100BA000604001A900F034F906B080BD70B504467C
:100BB00000680D468268520544BF80685FEAC050F5
:100BC00038D400F009FA21680A68920749D4064629
:100BD000681C3CD0DDB90868800721D5086880070B
:100BE0003FD4086880071BD50868800739D4086897
:100BF000800715D50868800733D4086880070FD5AB
:100C000008688007E7D52CE00868800729D400F041
:100C1000E3F9801B2168A842F6D908688007F3D45D
:100C2000206C40F004002064002084F83C00032085
:100C300070BD00BF206C40F020002064002084F8CC
:100C40003C00012070BD00BF0868800709D4086817
:100C5000800706D4086880075CBF08685FEA807078
:100C6000F2D56FF012000860206C40F40070206430
:100C7000886810F0405F1CBF002070BD207E08B166
:100C8000002070BDC86A10F4700F02D0886840055B
:100C9000F6D4206C20F480702064206CC004EFD463
:100CA000206C40F001002064002070BD81B0002164
:100CB000009190F83C10012902BF022001B070475A
:100CC0000122016880F83C208A68D20729D18A680D
:100CD0004DF6836342F001028A6040F21002C2F2D4
:100CE00000021268C4F21B33A2FB03239A0C02EB2E
:100CF00042020092009AA2B1009A013A0092009A30
:100D00007AB1009A013A0092009A52B1009A013ADF
:100D10000092009A2AB1009A013A0092009A002AA1
:100D2000EAD18B68026CDB070AD142F01001016442
:100D3000416C41F001014164002001B0704700BFE7
:100D400040F201739A4302F5807202644A685205C8
:100D500004D5026C012363F30D320264026C4FF080
:100D6000000CD2044FF0000244BF426C22F0060295
:100D700042F20003426480F83CC06FF02200C4F2EB
:100D800001030860D3F80403C00607D09942D3D109
:100D9000986810F0405FCFD104E000BF886810F081
:100DA000405FC9D1886840F080408860002001B071
:100DB0007047000090F83C10012904BF02207047E2
:100DC00001688A6822F001028A608968C90705D132
:100DD000016C41F20112914301310164002180F85C
:100DE0003C10084670470000B0B5044600F0F4F827
:100DF000054640F20800C2F200000078611C18BFEE
:100E0000044400BF00F0E8F8401BA042FAD3B0BD94
:100E10002DE9F04F82B000F13E4241F2000502F1AF
:100E2000FF77C4F2020507224FEAB726A84208BF9F
:100E30000422042E38BF4FEAB7224FF0010E0024DF
:100E400000274FF00008009208E000BF023708F1C9
:100E50000108202F04F1040400F0B4800E680EFA9B
:100E600008F916EA090FF1D0D1F804A00AF0030B33
:100E7000ABF10106012E19D80322866802FA07FE9B
:100E8000CA6826EA0E06BA40324382604268CAF354
:100E9000001522EA090205FA08F54FEA480C6FEA44
:100EA0000E064FF0010E2A4342600BE00322BA40C7
:100EB000D643BBF1030FBC4604D1BC464FF0030B35
:100EC00024E000BFC2688D68324005FA0CF52A4361
:100ED000BBF1020FC26019D16FF0030202EA58029F
:100EE000024404F01C030F25D2F820E005FA03FAAF
:100EF0000D692EEA0A0E05FA03F343EA0E031362A4
:100F0000D1F804A04FF0010E0AF0030B02680BFAAF
:100F10000CF332401A431AF4403F026096D000228C
:100F200043F644030192C4F202031A6843F6004CEC
:100F300042F480421A601A68C4F2010C02F4804242
:100F40000192019A28F003024FF6084A6244CFF654
:100F5000FF7A52F80A3004F00C060F25B540AB4377
:100F6000009D05FA06F6334342F80A30DCF800200B
:100F70004B6842EA0906DD0358BF22EA0906CCF8AD
:100F80000060DCF804209D0342EA090658BF22EA0B
:100F90000906CCF80460DCF80820DD0242EA090604
:100FA00043F60C4558BF22EA0906CCF80860C4F2A3
:100FB00001052A689B0242EA090658BF22EA09068F
:100FC0002E6043E702B0BDE8F08F0000002A08BFA2
:100FD000090481617047000040F2B420C2F20000B1
:100FE0000068704770B5B8B3044690F83D0028B962
:100FF000002084F83C00204600F0C4F9242084F846
:101000003D002068016821F001010160016841F4A0
:1010100000410160016821F40041016000F0F2FB31
:1010200048F28041C0F21E0140F60013D4F804E0FB
:1010300088424FF00001C0F23D0348F2A16C4FF02E
:10104000000238BF01219842C0F2010C38BF0122D2
:10105000E64538BF0A460AB1012070BD4DF68361EE
:10106000C4F21B31A0FB01122168950C4B684FF4B0
:10107000967623F03F0343EA9243754344F6D356F2
:101080004B60C1F262060B6AA5FB0656B50923F058
:101090003F03E64538BF950C6A1C1A430A62CA69C9
:1010A00048F2A0664CF6FF73C0F20106B64522EA8C
:1010B00003020BD801384FEA4E03B0FBF3F00130C6
:1010C0006FF31F30042898BF04201EE0A368013886
:1010D00063B119230EFB03F3B0FBF3F001306FF3A0
:1010E0001F3078B100F5804008E000BF0EEB4E03E2
:1010F000B0FBF3F001306FF31F3028B100F5004072
:1011000003E000BF012000E001201043C86108682F
:10111000D4E9072320F0C000104318430860886812
:1011200048F2FF3204F10C0690434CCE18431043B2
:10113000A5698860C86820F0FF0030432843C86074
:10114000086840F00100086000202021206484F835
:101150003D10206384F83E0070BD00002DE9F0478B
:1011600082B01E4617468A460446FFF735FF94F8BC
:101170003D1020291ED1DDF82890054620688169A0
:10118000890713D5FFF728FF401B1A28F6D3002044
:101190002021206384F83D1084F83E00216C41F04A
:1011A0002001216484F83C0004E000BF94F83C1066
:1011B000012903D1022002B0BDE8F087012184F8A3
:1011C0003C100168C90703D1016841F001010160C9
:1011D000016840F2020821F400610160212184F8D5
:1011E0003D10102184F83E1000212164676266855D
:1011F000618DC0F201082185A8F10211E162E16A66
:1012000011F5803F18BF012940F09680016841F434
:101210008071016019F101012DD0B9F1000F23D1C6
:101220004169C90731D1FFF7D7FE00202021206393
:1012300084F83D1084F83E00216C41F020012164C7
:10124000216884F83C000868C00544BF4FF4007072
:101250002064012002B0BDE8F08700BFFFF7BCFEAC
:10126000401B4845E1D820684169C907F6D00CE029
:101270004169C90709D14169C90701BF41695FEAED
:10128000C17141695FEAC171F2D02169B1F5804F46
:1012900002D10AF0FE0110E0062101EADA11F03174
:1012A000016108F1060120464A462B4601F0EAFAA0
:1012B0000028CED120685FFA8AF1016120464146BC
:1012C0004A462B4601F0DEFA0028C2D100200190E8
:1012D00020684169019180690190019806E000BF92
:1012E000204649462A4601F06DFA68BB208DC8B3F6
:1012F000204649462A4601F033FB28BB606A216834
:10130000024612F8013B0B616262628D013A62850E
:10131000228D571E27854B693F0418BF13F0040325
:10132000DED0437802300B616062608D01386085E9
:10133000901E2085D4E700BF08293FF467AF216BDA
:1013400012293FF463AF65E7206C04287FF481AF76
:101350002068016841F400710160012002B0BDE81D
:10136000F08700BF2068016841F40071016020200F
:1013700084F83D00002084F83E0084F83C0002B070
:10138000BDE8F087B0B586B0016845F20040C4F210
:101390000000814202D006B0B0BD00BF002543F678
:1013A00030040195C4F20204216800F5D83041F000
:1013B00002012160216801F00201019101994FF4BD
:1013C00040710191122102910121039103210491A5
:1013D0000421059101A9FFF71BFD0095206940F448
:1013E00000102061206900F400100090009806B001
:1013F000B0BD000040F2080040F2B421C2F200008B
:10140000C2F2000100780A681044086070470000CA
:1014100080B543F60040C4F20200016841F4007157
:101420000160016841F480610160016841F48071EC
:101430000160032000F074F8002000F005F800F0CF
:1014400027F8002080BD000070B540F20806C2F207
:10145000000640F210013278C2F200014FF47A73B4
:101460000968B3FBF2F20446B1FBF2F1084600F062
:101470002BFE0F2C4FF0010508D838B94FF0FF3084
:1014800021460022002500F01FF87460284670BD38
:1014900082B0002043F640010190C4F202014A6884
:1014A00042F480424A604A6802F480420192019A02
:1014B0000090086840F080500860086800F0805094
:1014C0000090009802B0704710B54EF60C5CCEF25A
:1014D000000CDCF80030C3F3022E8EF00704042C5D
:1014E00028BF0424BEF103034FF0FF3E0EFA04F4BC
:1014F00038BF0023A14399400EFA03F39A4300F04A
:101500000F03043B1143634409010C3300F16042B3
:10151000B0F1FF3FC8BF02F56443197010BD000071
:101520004EF60C51CEF200010A684FF6FF031A4046
:1015300060F30A2242F0806040F0FD70086070475E
:10154000F0B581B00446006810F0050F2DD0682773
:10155000C4F2472743F670060020C4F20206386042
:10156000FFF73AFD054600BF56F8700C000105D59F
:10157000FFF732FD401B0228F6D93DE0D4E9011007
:10158000000740EA8110706101203860FFF724FDF8
:10159000054600BF56F8700C000105D4FFF71CFD8E
:1015A000401B0228F6D927E02068810758D543F66A
:1015B00070060020C4F20206009056F8300C47F284
:1015C000000740F0805046F8300C56F8300CC4F25A
:1015D000000700F0805000900098386840F4807058
:1015E0003860FFF7F9FC05463868C00508D4FFF7F6
:1015F000F3FC401B0228F7D9032001B0F0BD00BF67
:10160000306810F4407013D0E16801F440718842F2
:101610000ED0306840F64061C4F24721012220F428
:1016200040700A6000220A6030603068C00727D12D
:101630002068E16856F8682C4FF6FF4701F44073C4
:1016400022F4F812C0F6FF770F40B3F5407F08BFD1
:101650003A4346F8682C32686FF31F31114331600A
:10166000000703D4002001B0F0BD00BF207C40F68D
:101670004061C4F24721C1F8A003002001B0F0BDD1
:10168000FFF7AAFC054641F2883700BF30688007A3
:10169000CED4FFF7A1FC401BB8424FF00300F5D9B0
:1016A000ECE700002DE9F041002800F08B8043F6C4
:1016B0000808C4F202080446D8F8F8030D4600F002
:1016C0000700884207D288F8F853D8F8F80300F0EA
:1016D0000700A84276D12068810717D5410705D5B4
:1016E000D8F8001041F4E051C8F80010010705D502
:1016F000D8F8001041F46041C8F80010D8F8001084
:10170000A26821F0F0011143C8F80010C0073FD1D2
:10171000D8F8F80300F00700A84207D988F8F85372
:10172000D8F8F80300F00700A8424BD12068410721
:1017300007D5D8F80010E26821F4E0511143C8F849
:101740000010000708D5D8F80000216920F4604097
:1017500040EAC100C8F8000000F068F8D8F80010AE
:1017600044F26412C1F30311C0F60002515C40F26E
:10177000100220FA01F140F20C00C2F200000068F1
:10178000C2F200021160FFF75FFE0020BDE8F081A9
:101790006068811E022907D258F8081C89015CBFC5
:1017A0000120BDE8F08111E0012807D158F8081C9C
:1017B00089035CBF0120BDE8F08107E058F8081CF0
:1017C000890703D40120BDE8F08100BFD8F80010DC
:1017D00021F003010843C8F80000FFF7FDFB0646AF
:1017E00041F28837D8F80000616800F00C00B0EBD7
:1017F000810F8DD0FFF7F0FB801BB842F2D9032098
:10180000BDE8F08140F2100043F60801C2F200008A
:10181000C4F202010068096844F27412C1F3822123
:10182000C0F60002515CC8407047000010B543F696
:101830000404C4F20204606800F00C0008280BD015
:10184000042819BF42F20040C0F2F40047F64000FD
:10185000C0F27D1010BD00BF2068216823684902D6
:1018600047F64001C0F27D1100F03F02C3F388103B
:101870005CBF42F20041C0F2F401A1FB0001002371
:10188000FEF7A4FC21680222C1F3014102EB4101F1
:10189000B0FBF1F010BD00002DE9F04182B000284E
:1018A0006AD00446007843F60006C007C4F2020678
:1018B0000BD0B06800F00C00042840F0A180306824
:1018C000800302D56068002856D0207880071AD59A
:1018D000B06810F00C0F09D0B06800F00C000828B8
:1018E00040F0A8807068400200F1A4803068800752
:1018F00002D5E06801283FD13068216920F0F80066
:1019000040EAC10030602078000739D420784007D1
:101910004ED4A5695DB3B06800F00C00082840F013
:10192000BD80012D28D07068E16900F480028A42F0
:1019300022D1216A00F03F028A421DD147F6C071D0
:10194000626A0140B1EB821F16D1A26A0023CFF672
:10195000FF7303EBC23200F440316FF30F02914288
:101960000AD1E16A00F07060B0EB016F04D1002091
:1019700002B0BDE8F08100BF012002B0BDE8F081F7
:101980006069002840F20000C4F2472076D00121AF
:10199000C0F8801EFFF720FB054600BF706F800770
:1019A000B4D4FFF719FB401B0228F7D9DDE000BFD4
:1019B000306C10F080580AD100200190306C40F05B
:1019C00080503064306C00F080500190019847F2F4
:1019D0000007C4F200073868C00541D4386840F4F5
:1019E00080703860FFF7F8FA054600BF3868C00518
:1019F00036D4FFF7F1FA401B0228F7D9B5E000BF53
:101A0000B06800F00C00082803D1706840023FF570
:101A100056AF6068B0F5803F07D0B0F5A02F40F01A
:101A20008D80306840F480203060306840F4803031
:101A300030608DE0E068002852D00020C4F24720DA
:101A400001210160FFF7C8FA054600BF3068800732
:101A50003FF552AFFFF7C0FA401B0228F6D984E0E9
:101A6000A068012805D005284ED1306F40F0040051
:101A70003067306F40F0010030674FE00021C0F860
:101A8000801EFFF7A9FA0546706F80077FF53EAF0D
:101A9000FFF7A2FA401B0228F6D966E00027C4F23D
:101AA000472700203866FFF797FA022D05460BD12D
:101AB000306880015ED5FFF78FFA401B02284FF097
:101AC0000300F5D954E700BF306880017FF54FAFC0
:101AD000FFF782FA401B02284FF00300F4D947E7D2
:101AE0000020C4F2472000210160FFF775FA054687
:101AF000306880077FF507AFFFF76EFA401B0228BA
:101B00004FF00300F4D933E7316F002821F00101D1
:101B10003167316F21F0040131674DD0FFF75CFA76
:101B2000054641F2883700BF306F800756D4FFF773
:101B300053FA401BB842F7D917E000BF31680028BC
:101B400021F480313160316821F4802131604FD03F
:101B5000FFF742FA054600BF306880033FF5B5AE97
:101B6000FFF73AFA401B6428F6D9032002B0BDE81B
:101B7000F08100BF04F11C052FCD08430021CFF6F2
:101B8000FF7140EA821001EBC3316FF30F0140EAAD
:101B900005600843706001203866FFF71DFA0446AF
:101BA000306880013FF5E3AEFFF716FA001B02280C
:101BB0004FF00300F4D9DBE6FFF70EFA054641F2D9
:101BC000883700BF306F800708D5FFF705FA401B44
:101BD000B8424FF00300F5D9CAE600BFB8F1000FD4
:101BE0007FF497AE306C20F08050306491E600BFF7
:101BF000FFF7F2F9054600BF306880037FF565AE58
:101C0000FFF7EAF9401B64284FF00300F4D9AFE670
:101C100010B5006840684FEA1043C0F3042E00F08E
:101C20003F0CC0F34234CB7081F801E081F802C070
:101C30000C700AB1002010BDC0F3035404EB8404FF
:101C400003F00F0303EB4403020ACB704FEA1E13A9
:101C500043EA830302F00F0202EB43024A704FEAA9
:101C60001C1242EA820200F00F0000EB4200887072
:101C7000002010BD10B500684024836A4B600369E2
:101C80006FF3DF338B600068C0F30543C0F3062EAB
:101C900000F07F0C04EA10440B7081F801E081F839
:101CA00002C0CC7012B1002010BD00BF020C1B0995
:101CB00043EA830302F00F0202EB4302040A0A70B4
:101CC0004FEA1E1202EB820204F00F0303EB420202
:101CD0004A704FEA1C1202EB820200F00F0000EB88
:101CE00042008870002010BD002804BF012070470A
:101CF000B0B50446407F20B900202077204600F090
:101D000061F8022060772168CA2048625320486247
:101D1000C868400612D44FF0FF30C860FFF75CF986
:101D2000054600BF2168C868400607D4FFF754F98C
:101D3000401BB0F57A7FF5D92EE000BF88684FF6DA
:101D4000BF72CFF68F7210408860D4E9010CD4E9DD
:101D50000335626928438D681043284388600B610E
:101D6000086940EA0C400861C86820F08000C8603B
:101D70008868800618D4C86820F0A000C860FFF703
:101D80002BF905462168C86880060DD4FFF724F9B1
:101D9000401BB0F57A7FF5D9216801200422FF238A
:101DA0004B626277B0BD00BF086C20F480200864ED
:101DB000A0690A6C1043086400200122FF234B62D3
:101DC0006277B0BD006842F60001C4F200018842AB
:101DD00018BF704740F63C60C4F247200121016003
:101DE000704700002DE9F0470446007F01284FF0BE
:101DF000020008BFBDE8F0870123237760775AB15E
:101E00004A7808788B78C978120242EA014119446D
:101E100041EA40364EE000BF48784CF6CD4CC20651
:101E200042BF00F0EF000A304870CB78CCF6CC4CC3
:101E3000A3F10A0E5FFA8EF2A2FB0C28A0F10A0AA7
:101E40008A785FFA8AF7A7FB0C79A2F10A07FDB23C
:101E5000A5FB0C564FEAD80505EB85054FF0010CA4
:101E6000AEEB450E0CEBD805092B88BF4EEA0513E7
:101E70004FEAD90505EB850591F800E00CEBD90197
:101E8000AAEB4505092888BF45EA0110F108DBB235
:101E900001EB81011B04A7EB41010CEBD607092ADA
:101EA00088BF41EA0712C0B2D1B243EA4E3242EAD9
:101EB000002046182168CA20486253204862C8683A
:101EC000400611D44FF0FF30C860FFF785F8054693
:101ED0002168C868400607D4FFF77EF8401BB0F5BC
:101EE0007A7FF5D91CE000BF26F0C0004860C868C2
:101EF00020F08000C8608868800615D4C86820F08B
:101F0000A000C860FFF768F8054600BF2168C868F0
:101F1000800609D4FFF760F8401BB0F57A7FF5D949
:101F200021680120042201E000200122FF234B62EE
:101F3000002162772177BDE8F08700002DE9F04F9E
:101F400081B00446007F01284FF0020000F0B98004
:101F50000D460121217760772168886800F04000F4
:101F600032B1002854D14FF0000885F8038052E0C8
:101F7000002806BF4FF0000C85F803C095F803C099
:101F80002A784CF6CD4EA2F10A086E785FFA88F3F3
:101F9000CCF6CC4EA3FB0E39A6F10A0AAB785FFA59
:101FA0008AF0A0FB0E0BA3F10A00C7B2A7FB0E7EBE
:101FB0004FEAD90707EB8707A8EB47074FF001085F
:101FC00008EBD909092A88BF47EA09124FEADB075B
:101FD00007EB8707AAEB470908EBDB07092E88BF49
:101FE00049EA07164FEADE0707EB8707A0EB470031
:101FF00008EBDE07092B88BF40EA071342EA0C0012
:10200000C0B2F6B200045FFA83F840EA062709E09E
:10201000E8784FEA00486A782878AB78120242EAFA
:102020000040C718CA20486253204862C86840066A
:1020300012D44FF0FF30C860FEF7CEFF064600BF57
:102040002168C868400607D4FEF7C6FF801BB0F5BC
:102050007A7FF5D92AE000BF47F67F7247EA080089
:10206000C0F27F0210400860886820F480208860F9
:10207000D5E903028B68104318438860C86820F0D4
:102080008000C8608868800614D4C86820F0A0006A
:10209000C860FEF7A1FF05462168C868800609D41C
:1020A000FEF79AFF401BB0F57A7FF5D92168012031
:1020B000042201E000200122FF234B62002162770D
:1020C000217701B0BDE8F08F411E0020B0EB116F09
:1020D0001CBF012070474EF21002CEF20002516088
:1020E0004EF62351CEF20001F0230B7007219060D1
:1020F00011607047B0B590F83C20012A04BF02205F
:10210000B0BD01F108053CCDD1E900CE23F47C53EC
:1021100022F470521A432EF4F0431A432CF4E04395
:102120001A4324F4C0431A432A43C96922F4804263
:10213000036811435964002180F83C100846B0BD83
:1021400010B590F83C20012A4FF002023ED080F8F2
:102150003D200268D2F804E0D2F808C00C682EF0E6
:102160007003234340F6FF34C4F20004A2425360DC
:1021700010DCB2F1804F1ED040F20043C4F20003E5
:102180009A4218D040F60003C4F200039A4212D0DB
:1021900016E000BF40F60043C4F200039A420AD0A2
:1021A00044F20003C4F201039A4204D00023C4F2B3
:1021B00001039A4204D149682CF0800319439160CD
:1021C0000121002280F83D1080F83C20104610BD0F
:1021D00080B586B0006840F2FF71C4F20001884209
:1021E0004FF000010591CDE90311CDE9011119DC92
:1021F000B0F1804F34D040F20041C4F20001884277
:1022000066D10020009043F63000C4F2020001685D
:1022100041F002010160006800F0020000900098A7
:10222000102045E040F60001C4F2000188422FD0A2
:102230000021C4F2010188424AD10020009043F6F7
:102240003000C4F20200016841F001010160006841
:1022500000F00100009000984FF4706011E000BFA2
:102260000020009043F63000C4F20200016841F003
:1022700001010160006800F00100009000984FF437
:102280000040019000200121C4F2020017E000BFCD
:102290000020009043F63000C4F20200016841F0D3
:1022A00002010160006800F00200009000984020E8
:1022B00001900020C4F2020000F580600221022299
:1022C00002920022059101A9CDE90322FEF7A0FDAB
:1022D00006B080BD2DE9F04390F83C30012B04BFDF
:1022E0000220BDE8F0834FEAB202032A3AD8DFE8C1
:1022F00002F003417DB700BF036800261A6AC4F2EA
:10230000010622F001021A621D6A1A465C6852F840
:1023100018CFB3428E68D1F800E025F0020545EAF7
:1023200006050CD1CE68D1E9057824F4407425F077
:102330000C0526F004063C43354344EA08042CF01F
:10234000730747EA0E075C609F614F6809695F6326
:102350001D629F6947F008079F619F6927F0040786
:102360009F61ACE00121002280F83C200846BDE8D6
:10237000F08300BF036800261A6AC4F2010622F047
:1023800010021A621D6A1A46D3F804C052F8184F98
:10239000B3428E68D1F800E025F0200545EA061525
:1023A0000FD1CE68D1E905986FF0400707EA06160D
:1023B0002CF4406725F0C00547EA8907354347EA12
:1023C000880C24F4E64444EA0E27C3F804C09F6155
:1023D0004F6809699F631D629F6947F400679F61A9
:1023E0009F6927F480679F6168E000BF036800264B
:1023F0001A6AC4F2010622F480721A621D6A1A4631
:10240000D3F804C052F81CEFB3428E680C6825F470
:10241000007545EA06250FD1CE68D1E90598360248
:1024200040F2FF47BE432CF4405725F4406547EA8D
:102430000917354347EA081C2EF073072743C3F8F2
:1024400004C0DF614F680969DF631D62DF6947F01F
:102450000807DF61DF6927F00407DF612FE000BFB5
:10246000036800271A6AC4F2010722F480521A6234
:102470001A46D3F820C05D6852F81C4FD1F800E02E
:102480008E68BB4204D14F6925F4804545EA871523
:102490002CF4005747EA063724F4E64646EA0E26AF
:1024A0005D60DE614E6809691E641F62DF6947F482
:1024B0000067DF61DF6927F48067DF610902136865
:1024C000194311600021002280F83C200846BDE835
:1024D000F0830000002804BF0120704710B50446B7
:1024E00090F83D0028B9002084F83C00204600F018
:1024F0008FF8022084F83D00206840F2FF730268E4
:10250000C4F2000340F2000C9842C4F2010C1DDD3D
:1025100040F60001C4F20001884220D060451ED080
:1025200040F60041C4F20001884218D04FF6FF7116
:10253000C4F2000188421CDC984225DCB0F1804FD7
:102540003AD040F20041C4F2000133E0B0F1804FD4
:1025500005D040F20041C4F200018842E6D1A168F2
:1025600022F070020A434FF6FF71C4F20001884264
:10257000E2DD44F2FF31C4F20101884210DC604523
:102580001AD044F2000113E040F60001C4F2000149
:10259000884211D040F60041C4F200010AE000BFB9
:1025A00044F60001C4F20101884205D044F2004122
:1025B000C4F20101884203D1216922F440720A4326
:1025C000A36922F08001D4F804E0E2681943604571
:1025D0000160C262C0F828E002D16169CCF8301015
:1025E00001214161002084F8461084F83E1084F8EF
:1025F0003F1084F8401084F8411084F8421084F8A9
:10260000431084F8441084F8451084F83D1010BD40
:1026100081B0006840F2FF71C4F20001884219DC09
:10262000B0F1804F2ED040F20041C4F20001884248
:1026300049D10020009043F64000C4F20200016836
:1026400041F002010160006800F002000090009873
:1026500001B0704740F60001C4F20001884223D067
:102660000021C4F2010188422DD10020009043F6E0
:102670004000C4F20200416841F00101416040683D
:102680000BE000BF0020009043F64000C4F20200BF
:10269000016841F001010160006800F00100009054
:1026A000009801B0704700BF0020009043F6400042
:1026B000C4F20200016841F004010160006800F00A
:1026C00004000090009801B07047000041B1082953
:1026D00010D0042914BF00F1410200F13F020BE0C9
:1026E00090F83E20012A1CBF01207047022280F88A
:1026F0003E2013E000F140021278012A1CBF0120A5
:1027000070470222082907D0042914BF80F841200D
:1027100080F83F2002E000BF80F84020006801F010
:102720001F010122036A8A4023EA02010162036A4F
:102730004421C4F201011A43A1F144039842026208
:1027400016D040F6FF31C4F2000188421ADCB0F125
:10275000804F28D040F20041C4F20001884222D0CC
:1027600040F60001C4F2000188421CD022E000BF04
:102770000A6842F400420A6040F6FF31C4F20001E8
:102780008842E4DD40F60041C4F2000188420AD0EC
:1027900044F20001C4F20101884204D00021C4F2D5
:1027A0000101884206D1816801F00701062904BFB2
:1027B00000207047016841F001010160002070476E
:1027C000FEE7000070B50368044653F8140F400795
:1027D00043D40E46F1B1701C30D100BF18684005DB
:1027E0003ED41868400738D41868400538D41868B3
:1027F000400732D41868400532D4186840072CD4FA
:10280000186840052CD4186840074FF0000048BFF6
:1028100070BDE3E71868400522D4FEF7DDFB002019
:102820002021206384F83D1084F83E00216C41F0A3
:102830002001216484F83C00012070BD154600BFD2
:10284000186840050CD4FEF7C7FB401BB042E6D821
:10285000236853F8140F4007F2D5002070BD00BF65
:102860006FF48060186000202021206384F83D1000
:1028700084F83E00216C41F00401216484F83C009E
:10288000012070BDF0B581B01D460368044658694B
:102890008FB23840B84203D1002001B0F0BD00BF74
:1028A00016467AB3701C29D15869400540D458693E
:1028B0003840B842F0D05869400539D4586938409A
:1028C000B842E9D05869400532D458693840B84216
:1028D000E2D0586940052BD458693840B8424FF0CF
:1028E0000000E1D139E000BFFEF776FB401BB042AB
:1028F0000DD8236858693840B842CDD05869400592
:10290000F2D515E05869400512D4FEF765FB0020AA
:102910002021206384F83D1084F83E00216C41F0B2
:102920002001216484F83C00012001B0F0BD00BF0B
:102930001868202140F4007018606FF480605861BE
:102940000020206384F83D1084F83E00216C41F0A3
:102950000401216484F83C00012001B0F0BD0000B6
:1029600070B50368044653F8140F000643D40E46AE
:10297000F1B1701C30D100BF186840053ED4186812
:10298000000638D41868400538D41868000632D4D8
:102990001868400532D4186800062CD41868400521
:1029A0002CD4186800064FF0000048BF70BDE3E764
:1029B0001868400522D4FEF70FFB00202021206379
:1029C00084F83D1084F83E00216C41F02001216420
:1029D00084F83C00012070BD154600BF1868400512
:1029E0000CD4FEF7F9FA401BB042E6D8236853F83E
:1029F000140F0006F2D5002070BD00BF6FF4806098
:102A0000186000202021206384F83D1084F83E00E7
:102A1000216C41F00401216484F83C00012070BD68
:102A2000FEE70000FEE7000070470000704700006E
:102A300040F21900C2F20000017840F21802642945
:102A4000C2F2000206D8137823B901310170FEF7F3
:102A5000D1BC00BF01201070FEF7CCBCB0B598B05F
:102A6000002443F64000CDE90D44CDE90A44CDE908
:102A70000844CDE90644CDE90444CDE9024401947B
:102A8000C4F202000168022541F080510160006833
:102A900000F080500190019847F200000194C4F2C8
:102AA0000000016865F38F3101600068102100F4B7
:102AB0004040019001980A200C9001200F90CDE930
:102AC0001010082014905420CDE91505042017900B
:102AD0000CA8CDE91254FEF7DFFE28B1EFF3108009
:102AE00072B600BFFEE700BF0F20CDE907054FF427
:102AF0008050CDE90A0407A802210994FEF7D2FD0F
:102B000020B1EFF3108072B6FEE700BF0220029002
:102B10004FF40070059002A8FEF712FD20B1EFF30C
:102B2000108072B6FEE700BF18B0B0BD4EF68850F8
:102B3000CEF20000016841F47001016070470000AE
:102B4000FEE700002DE9F04182B040F60C0040F2B3
:102B50004014C0F60C00C2F2000401AD01904FF029
:102B6000640820464E212A460423CDF80080FEF753
:102B7000F5FA42F62D17C0F60D17642620464E21B1
:102B80002A4604230197CDF80080FEF7E7FA013EBC
:102B9000F4D102B0BDE8F081F0B583B03C20FEF77F
:102BA00023F940F2401443F63C07C2F2000402ADA0
:102BB000C0F60C07642620464E212A4604230297BD
:102BC0000096FEF7CBFA0A20FEF70EF920464E21BA
:102BD0002A46042302970096FEF7C0FA0520FEF766
:102BE00003F920464E212A46042302970096FEF759
:102BF000B5FA1420FEF7F8F842F62C00C0F60C00E7
:102C0000029020464E212A4604230096FEF7A6FA9B
:102C10001420FEF7E9F842F62C00C8F68C0002906A
:102C200020464E212A4604230096FEF797FA0520F7
:102C3000FEF7DAF840F60C00C8F68C000290204649
:102C40004E212A4604230096FEF788FA0520FEF757
:102C5000CBF840F60C00C1F61C00029020464E2135
:102C60002A4604230096FEF779FA0520FEF7BCF801
:102C70000520FEF7B9F840F60C00C6F66C0002908D
:102C800020464E212A4604230096FEF767FA0520C7
:102C9000FEF7AAF840F60C00CCF6CC0002902046D5
:102CA0004E212A4604230096FEF758FA03B0F0BDE1
:102CB000F0B583B0017821B340F24014461E64277A
:102CC000C2F2000402AD00BF21F00F00090100F1C3
:102CD0000D0209308DF8090001F10D008DF80A0090
:102CE00001F109008DF808208DF80B0020464E21D7
:102CF0002A4604230097FEF731FAB17801360029FD
:102D0000E2D103B0F0BD0000032805D0022805D0B1
:102D1000012808BF403102E0543100E0143180B591
:102D200082B001F07000090100F18C0288308DF84A
:102D3000050001F10C008DF8060001F108008DF886
:102D4000070040F240108DF804204FF0640CC2F2EE
:102D5000000001AA4E210423CDF800C0FEF7FEF9C1
:102D600002B080BD000000009AB040F6000BC4F233
:102D7000020BFEF74DFB6420FEF736F85846802123
:102D800001224FF00108FEF721F9FFF767FE00244A
:102D900043F630000C941094C4F202000168ABF5C5
:102DA000006541F0800101600168002201F08001AE
:102DB0001091109910940168E02641F00101016022
:102DC000016801F00101109110991094016841F01F
:102DD00004010160016801F0040110911099109440
:102DE000016841F0020101600068E02100F002008A
:102DF000109010982846FEF7E9F858464FF4F871FD
:102E000000224FF4F877FEF7E1F8CDE9086808AE44
:102E100028463146CDE90A44FDF7FAFF58463146C7
:102E2000CDE90878CDE90A44FDF7F2FF40F28806C3
:102E3000C2F20006ABF568413046012240F8201F7F
:102E40004FF48031C0F600720B94047680F8204075
:102E5000C0E90A24C0F81C8080F83040C0E90114A1
:102E6000C0E90344C0F81480FDF7BEFD20B1EFF3C4
:102E7000108072B6FEE700BF06F1200008A9CDE978
:102E800008480A94FDF70CFD20B1EFF3108072B6EC
:102E9000FEE700BF40F24010ABF5DA31C2F20000AD
:102EA00048F2A06200244FF48043C0F2010280E89F
:102EB0001600C0E90343C0E90544C0E90744FEF732
:102EC00091F828B1EFF3108072B600BFFEE700BFA3
:102ED00040F29410ABF58431C2F200004FF47A73E3
:102EE000CDE918441694CDE91444CDE91244CDE956
:102EF0001044CDE90E44CDE90C44CDE90A44CDE9B6
:102F000008444FF4D26280E81600C0E90334C0E9F7
:102F10000544FFF7DFFA28B1EFF3108072B600BF67
:102F2000FEE700BF40F29410C2F2000018A9FFF7BC
:102F300007F928B1EFF3108072B600BFFEE700BFBB
:102F4000602010900020CDE91100CDE91300CDE9FB
:102F5000150040F29410C2F2000010A90022FFF701
:102F6000B9F928B1EFF3108072B600BFFEE700BFD9
:102F700040F29410C2F2000010A90422FFF7AAF94F
:102F800020B1EFF3108072B6FEE700BF40F294105C
:102F9000C2F2000010A90822FFF79CF920B1EFF35C
:102FA000108072B6FEE700BF40F29410C2F200003B
:102FB00010A90C22FFF78EF920B1EFF3108072B642
:102FC000FEE700BF4FF400500D9040F29410002433
:102FD000C2F2000008A90C94CDE90A44CDE90844E6
:102FE0000F94FFF787F828B1EFF3108072B600BF97
:102FF000FEE700BF40F29415C2F200052846FFF735
:10300000E7F840F2DC10C2F200004FF080414FF4CC
:103010007A73CDE910440E94CDE90C44CDE90A440D
:10302000CDE908444FF4D26280E81600C0E90334C9
:103030008461FFF74FFA18B1EFF3108072B6FEE724
:1030400040F2DC10C2F2000010A9FFF779F818B1C5
:10305000EFF3108072B6FEE76020089040F2DC10BB
:103060000024C2F2000008A90022CDE909440C9412
:10307000FFF730F920B1EFF3108072B6FEE700BF22
:1030800040F2DC10C2F20000FFF7A2F8ABF5F0301E
:103090007F21C6E9000406F10800FF2216C0304671
:1030A0000A94CDE908441094C6E90544FEF71CFED5
:1030B00020B1EFF3108072B6FEE700BF0020ADF83C
:1030C00020008DF82200CDE90B0040F28800C2F20A
:1030D000000008A90122FEF731FF18B1EFF31080BC
:1030E00072B6FEE740F20110C0F20100109040F20B
:1030F0008800C2F2000010A90122FEF773FE18B189
:10310000EFF3108072B6FEE740F23440C4F20000E4
:1031100000F5737240F26C200021C2F2000040F210
:10312000CC63CDE910110E91CDE90C11CDE90A1156
:10313000CDE90811C0E90021C0E9021301618161F4
:10314000FFF7C8F920B1EFF3108072B6FEE700BFB9
:1031500040F26C20C2F2000010A9FEF7F1FF18B196
:10316000EFF3108072B6FEE76020089040F26C200A
:103170000024C2F2000008A90022CDE909440C9401
:10318000FFF7A8F820B1EFF3108072B6FEE700BF9A
:1031900040F26C20C2F20000FFF71AF840F234400F
:1031A000C4F20000A0F1340140F22420C2F2000079
:1031B0004FF4FA62CDE910440E94CDE90C44CDE908
:1031C0000A44CDE90844C0E90014C0E902420461A0
:1031D0008461FFF77FF918B1EFF3108072B6FEE754
:1031E00040F22420C2F2000010A9FEF7A9FF18B196
:1031F000EFF3108072B6FEE7602008900020CDE962
:1032000009000C9040F22420C2F2000008A900221C
:10321000FFF760F820B1EFF3108072B6FEE700BF51
:1032200040F22426C2F2000640F634073046C4F2CB
:103230000007FEF7CDFF58464FF480710022FDF7DE
:10324000C5FE584640210022FDF7C0FE4FF47A70BB
:10325000FDF7CAFDFFF7A0FC6420FDF7C5FDFFF7F1
:1032600071FC3220FDF7C0FD28460021FFF72EFA41
:1032700040F2DC10C2F200000021FFF727FA40F212
:103280006C20C2F200000021FFF720FA3046002136
:10329000FFF71CFA40F234400024C4F200003C6006
:1032A00004606420FDF7A0FD40F218094DF20A7099
:1032B0004CF6CD419FED880BC2F20009C3F6A34046
:1032C000C3F64C51C9E9070151EC100B9FED840B7B
:1032D000CDE9061050EC101B9FED831BCDE90410C7
:1032E0009FED838B9FED849B9FED85AB9FED86BA11
:1032F0009FED86CA9FED86DA9FED87EBDDF810A083
:1033000051EC110BC9F82440CDE9021043E000BF95
:1033100040F2F0020020C2F20002107247F2505058
:1033200044F62071C7F26D00C4F24661C2E90001A3
:1033300040F2F004C2F200042046FFF7B9FC02207C
:103340000021FFF7E1FCD9F82800FDF709F953EC5B
:103350001E2BFDF785F802460B4620460FF258411A
:1033600000F07EFA2046FFF7A3FC03200021FFF7C0
:10337000CBFCD9F83000FDF7F3F802460B462046A7
:103380000FF2484100F06CFA2046FFF791FCFDF780
:1033900023FEC9F84C00FDF72FFAD9F85000FDF7CD
:1033A000CEF8079E069F32463B46FCF7E7FF059C9A
:1033B00052462346FCF7E2FFDDE90232FCF7DEFF6E
:1033C000FDF7E1F88046D9F85400C9F82880FDF7E8
:1033D000B6F832463B46FCF7D1FF52462346FCF78F
:1033E000CDFFFDF7D0F8C9F82C00FDF7B9F853EC84
:1033F000182BFCF71CFF53EC192BFDF731F8FDF7E8
:10340000C2F899F8001020F000400129C9F83000F6
:1034100040F0988040F20000C2F2000090ED010AF6
:103420000FEE108A002070EE4FBAD9ED0ECAA9F83F
:1034300000001BEE900AC9ED0DBAC9ED0FCAFDF7E9
:103440008FF853EC1A2BFCF799FF07461CEE900AF5
:103450000E46FDF785F802460B4638463146FCF726
:10346000E6FEFDF790F800EE100AB4EE4B0AF1EE1E
:1034700010FAB0EE4B1AC9F8380003DD89ED0E1AC8
:1034800009E000BFB4EE4D0AF1EE10FAB0EE4D1AAD
:10349000B8BF89ED0E1A99ED070A99ED082A2BEEAF
:1034A000800A2CEE822A30EE020A99ED101ABDEE47
:1034B000C00A10EE100A40F2BD513BEEC11A88421C
:1034C00089ED120AC9ED10BA89ED111A28DD40F212
:1034D000BE5028E000BF00BF000000000000303FE9
:1034E0000000000000C8A940B81E85EB51382840F4
:1034F0000000000000C899C0000000000000594012
:103500009A9999999999B93F005043470000FA4414
:10351000005043C700BF00BF0000000000408F40C4
:10352000642802DC6420C9F84800B4EE4CFAF1EEDD
:1035300010FABCBF0021C9F8381040F63401C4F2BB
:1035400000010860012100F04BF940F28806C2F248
:10355000000609F15C0130460022FEF78BFB09F101
:10356000180130460022FEF753FB99F85C0099F8E9
:103570005D1099F85E6051EA00076DD1A6F10B006D
:10358000042869D858464FF480710122FDF71EFDCA
:10359000584640210022FDF719FD40F23440C4F2A4
:1035A00000004FF4FA6101600020C9F80400584699
:1035B00080210122FDF70AFDFDF70EFDC9F8080084
:1035C00040F20000C2F200004B21016040F2000016
:1035D000C2F2000000682968486340F2DC11C2F2C0
:1035E000000109684863FDF7F7FCD9F84C10401A50
:1035F000C928FFF4D0AEFFF7A5FA00200021FFF79D
:1036000083FB40F2F00499F85C2099F85D3099F85A
:103610005E70C2F20004204663A1009700F020F91A
:103620002046FFF745FBD9F8046001200021FFF791
:103630006BFB012E7FF46CAE44F6207047F25051C4
:1036400040F2F002C0F24E00C7F26D01C2F2000279
:10365000C2E900106CE600BF97BBA6F11000042879
:103660002ED858464FF480710022FDF7AFFC584623
:1036700040210122FDF7AAFC40F23440C4F20000D0
:103680004FF4FA6101600120C9F804005846802116
:103690000022FDF79BFCFDF79FFCD9F80810401AAB
:1036A000322893D3D9F80C00012851D0002857D1E3
:1036B00040F20001C2F2000108680130086054E0E5
:1036C00027B9A6F1150004287FF65CAF58464FF4E1
:1036D00080710022FDF77AFC67BBA6F11A0004286E
:1036E00028D8584640210122FDF770FC40F23440B2
:1036F000C4F200004FF4FA6101600120C9F804002F
:10370000584680210022FDF761FCFDF765FCD9F8E1
:103710000810401A3228FFF459AFD9F80C000128DC
:1037200028D078BB40F20001C2F2000108680130E5
:1037300008602CE0584640210022FDF747FC40F28B
:103740003440C4F2000000210160C9F804102EE7E3
:1037500040F20001C2F2000108680138086004E08C
:1037600040F20000C2F200000068632811DD012071
:1037700012E000BF40F20001C2F200010868013807
:10378000086004E040F20000C2F200000068632814
:10379000EDDC322802DC0020C9F80C00FDF71CFC2F
:1037A000C9F8080012E700BF54494D452025643A86
:1037B00025643A2564000000566F757420427563D5
:1037C0006B203A20252E326656000000496F757432
:1037D000204275636B203A20252E3266410000009E
:1037E000B0B500240129C4F2020403D071B9002548
:1037F00001E000BF0125204640212A46FDF7E6FBF7
:1038000004F5006010212A46FDF7E0FBFDF7E4FB1C
:1038100040F21805C2F200052969401A0A280DD3A2
:10382000FDF7DAFB6969286181F00100686140B148
:10383000012818BFB0BD002504E000BF686900285A
:10384000F6D10125204680212A46FDF7BFFB04F56D
:10385000006020212A46BDE8B040FDF7B7BB00005C
:103860000FB4084B10B504A902AA039800F0DEF8C3
:10387000044602A9002000F070FC204610BC5DF850
:1038800014FB00005B41000802E008C8121F08C1D9
:10389000002AFAD170477047002001E001C1121FD1
:1038A000002AFBD1704700002DE9FF5F82B00021A4
:1038B000DDE90430020DDDF840B0034318D044F6D2
:1038C0001050A2F2FF3242431514119801281FD064
:1038D000A5EB0B00401C5FEA000A4FF000064E4FBC
:1038E000DFF83891B046504615D5CAF1000413E010
:1038F000119801244AA3012801D16FEA0B01029813
:10390000119AC0E90031C0E9024206B0BDE8F09F5B
:10391000CBF10000DFE704460021404A491842EBA2
:103920000450CDE9001012E0E00707D032463B46D4
:1039300040464946FCF722FD8046894632463B46D2
:1039400010461946FCF71AFD06460F466410002C77
:10395000EAD1DDE90401DDE90023BAF1000F06DA5E
:10396000FCF70CFD42464B46FCF708FD05E0FCF772
:1039700077FD42464B46FCF773FD04460E46002297
:10398000284BFCF70FFF03D84FF0FF30014607E04C
:103990000022254B20463146FCF749FCFCF7EAFEA5
:1039A000102409E0002C0ADB0A220023FCF70EFC9D
:1039B000039B30321A55641E50EA0102F2D1641C96
:1039C000039AC4F111031444119A012A03D001226D
:1039D00008430DD10AE0084304D000204FF0110B3A
:1039E000119072E7A3EB0B056D1E0DE05B4504DD46
:1039F0004FF0000205F1010504E003DA4FF0000288
:103A0000A5F10105002AECD002981199C0E9023114
:103A1000C0E9004579E70000000014400000F03FD5
:103A2000300000000000F0430000E03F2DE9FF4FB0
:103A300095B09B468946064600250FE2252877D19A
:103A400000242746F84A0121059400E0044316F8B3
:103A5000013F203B01FA03F01042F7D130782A28C9
:103A600011D06FF02F033078A0F13002092A16D858
:103A7000059A44F0020402EB820203EB4202104476
:103A8000761C0590EFE759F8042B0592002A03DA1B
:103A9000504244F40054059044F00204761C3078FF
:103AA0002E2816D116F8010F44F004042A280DD050
:103AB0006FF02F023078A0F13003092B09D807EB03
:103AC000870302EB4303C718761CF3E759F8047B1E
:103AD000761C30786C280FD006DC4C2817D068286C
:103AE0000DD06A2814D104E0742810D07A280FD1A0
:103AF0000DE044F400140AE044F4801401E044F4BE
:103B000040147278824202D104F58014761C761C2F
:103B1000307866280BD013DC582877D009DC0028D1
:103B200075D04528F6D04628F4D047281AD19DE113
:103B300018E0632835D0642879D0652812D195E142
:103B4000702873D008DC6728F1D069286FD06E2800
:103B50000DD06F2806D1B5E073282CD0752875D00C
:103B6000782874D05A46179990476D1C75E1C4F3B4
:103B70000250022809D003280DD0D9F800100428DB
:103B80000DD00D6009F1040967E1D9F80010EA17BA
:103B9000C1E90052F6E7D9F800100D80F2E70D7088
:103BA000F0E719F8041B8DF8001000208DF80100D3
:103BB000EA46012003E059F804AB4FF0FF306107FB
:103BC0004FF0000102D40DE008F101018846B9422E
:103BD0000FDA8045F8DB1AF808100029F4D108E064
:103BE00008F1010188468142FADB1AF80810002921
:103BF000F6D105985B46A0EB080721463846179A90
:103C000000F094FA284400EB080507E04DE029E1B4
:103C10000DE01AF8010B5A4617999047B8F10108C0
:103C2000F7D25B4621463846179A13E142E00A2252
:103C30000092C4F302524FF0000A022A08D059F849
:103C400004CB032A4FEAEC710AD00DE029E02AE008
:103C500009F1070121F00702F2E802C1914609E0EB
:103C60000FFA8CFC4FEAEC71042A03D14FFA8CFC5A
:103C70004FEAEC71002907DA0A460021DCF1000C5A
:103C800061EB02012D2202E0220504D52B228DF8E2
:103C90000420012203E0E20701D02022F7E790464A
:103CA00059E00A2102E010220DE010214FF0000A35
:103CB00000910BE010224FF0000A44F004040827A2
:103CC000009203E008224FF0000A0092C4F302526F
:103CD000022A05D059F804CB0021032A08D009E0B4
:103CE00009F1070121F00702F2E802C1914605E05F
:103CF0001FFA8CFC042A01D10CF0FF0C4FF00008D5
:103D0000220728D5702806D0009B83F0100353EAC1
:103D10000A0305D00EE040228DF80420012208E0BD
:103D20005CEA010206D030228DF804208DF80500EF
:103D300002229046009B83F0080353EA0A030AD14B
:103D40005CEA010201D1620705D530228DF804201A
:103D50004FF001087F1E582804D034A003900EA80D
:103D600002900DE036A0F9E753466046009AFCF752
:103D70002DFA84460398825C0298401E02900270DD
:103D80005CEA0100F0D1029806A9081A00F1200AA5
:103D9000600702D524F4803400E00127574502DD96
:103DA000A7EB0A0000E0002000EB0A010090059854
:103DB0004144401A0590E00306D45B462146179A19
:103DC000059800F0B3F90544002706E001A85A461B
:103DD000C05D179990476D1C7F1C4745F6DBE003DB
:103DE0000CD55B462146179A059800F09FF90544CB
:103DF00004E030205A46179990476D1C0099481EE0
:103E000000900029F5DC08E0029802995A460078F3
:103E1000491C0291179990476D1CBAF10001AAF153
:103E2000010AF1DC65E1000009280100303132337C
:103E300034353637383961626364656600000000E6
:103E400030313233343536373839414243444546D0
:103E50000000000000F058F90544761C3078002876
:103E60007FF4ECAD19B02846BDE8F08F620700D4AE
:103E7000062709F1070222F0070CFCE80223E146BD
:103E800003F000485FEA080C02D00FF2702C0DE03E
:103E90005FEA045C02D50FF2682C07E05FEAC47C9D
:103EA00002D00FF2602C01E0AFF2700C4FF0FF383F
:103EB00023F00043CDF850C065280CD006DC45281F
:103EC00009D046281DD047283DD13DE0662818D0AE
:103ED00067287ED138E00021112F01DB112000E09E
:103EE000781CCDE9000106A90EA8FFF7DDFCDDE98D
:103EF0000F010E9A03910021009207F1010A04912B
:103F00004DE04FF000400097CDE9011006A90EA842
:103F1000FFF7CAFCDDE90F0203920E9B1199002204
:103F2000DDF80CA00093049211B9791C00EB010A92
:103F3000B7EB0A0004D4C0F1FF3007F1010A049086
:103F4000AAEB0700019044E0012F00DA01270021CD
:103F5000112F01DD112000E03846CDE9000106A94E
:103F60000EA8FFF7A1FCDDE90F010E9A03910021D5
:103F700004910092BA4621070CD40399514500DA06
:103F80008A46BAF1010F05DD009AAAF10101515CE0
:103F9000302908D0B84202DA10F1040F06DA012104
:103FA000CDE9011015E0AAF10101E9E7002805DCDF
:103FB000049901440491AAEB000102E0411C51451F
:103FC00000DD8A460499401A401C01904FF00040E1
:103FD0000290200704D40198504501DBCDF80480FD
:103FE00000208DF84F0002980DF14F07B0F1004FFF
:103FF00025D02B200E9002984FF0020800280CDAF2
:10400000404202902D200E9007E00A210298FCF712
:10401000D6FA3031029007F8011DB8F10001A8F17D
:104020000108F2DC02980028EFD1791E0E98087082
:10403000307800F0200040F0450007F8020D12A88B
:10404000C01B00F107081498007800B1012000EBB4
:104050000A01019801EBE07105984144401A401EA5
:104060000590E00306D45B462146179A059800F0B8
:104070005DF805441498007818B15A46179990478E
:104080006D1CE00324D55B462146179A059800F085
:104090004DF805441CE00498002807DBDDE9030126
:1040A000884203DD0098405C179901E017993020A1
:1040B0005A469047049805F10105401C0490019868
:1040C000401E019004D12E205A46179990476D1C2E
:1040D000BAF10001AAF1010ADDDC05E017F8010BD5
:1040E0005A46179990476D1CB8F10001A8F10108D4
:1040F000F4DC5B462146179A0598ABE62D000000DC
:104100002B000000200000002DE9F04104460025AE
:104110001E461746880404D405E039462020B047DF
:104120006D1C641EF9D52846BDE8F0812DE9F041EB
:10413000044600251E469046C80301D5302700E0FE
:104140002027880404D505E041463846B0476D1C59
:10415000641EF9D52846BDE8F0810A68531C0B603F
:10416000107070470000000000000000010203040E
:10417000060708090000000001020304A04100082E
:10418000000000201800000088380008B84100082E
:1041900018000020A0060000983800080000000069
:1041A0001900000000204B46010000001000000034
:0841B0000024F40000000000EF
:040000050800019559
:00000001FF
